{
  "_format": "hh-sol-artifact-1",
  "contractName": "EstateLuxeOZepp",
  "sourceName": "contracts/elx721oz.sol",
  "abi": [
    {
      "inputs": [],
      "stateMutability": "nonpayable",
      "type": "constructor"
    },
    {
      "inputs": [
        {
          "internalType": "address",
          "name": "sender",
          "type": "address"
        },
        {
          "internalType": "uint256",
          "name": "tokenId",
          "type": "uint256"
        },
        {
          "internalType": "address",
          "name": "owner",
          "type": "address"
        }
      ],
      "name": "ERC721IncorrectOwner",
      "type": "error"
    },
    {
      "inputs": [
        {
          "internalType": "address",
          "name": "operator",
          "type": "address"
        },
        {
          "internalType": "uint256",
          "name": "tokenId",
          "type": "uint256"
        }
      ],
      "name": "ERC721InsufficientApproval",
      "type": "error"
    },
    {
      "inputs": [
        {
          "internalType": "address",
          "name": "approver",
          "type": "address"
        }
      ],
      "name": "ERC721InvalidApprover",
      "type": "error"
    },
    {
      "inputs": [
        {
          "internalType": "address",
          "name": "operator",
          "type": "address"
        }
      ],
      "name": "ERC721InvalidOperator",
      "type": "error"
    },
    {
      "inputs": [
        {
          "internalType": "address",
          "name": "owner",
          "type": "address"
        }
      ],
      "name": "ERC721InvalidOwner",
      "type": "error"
    },
    {
      "inputs": [
        {
          "internalType": "address",
          "name": "receiver",
          "type": "address"
        }
      ],
      "name": "ERC721InvalidReceiver",
      "type": "error"
    },
    {
      "inputs": [
        {
          "internalType": "address",
          "name": "sender",
          "type": "address"
        }
      ],
      "name": "ERC721InvalidSender",
      "type": "error"
    },
    {
      "inputs": [
        {
          "internalType": "uint256",
          "name": "tokenId",
          "type": "uint256"
        }
      ],
      "name": "ERC721NonexistentToken",
      "type": "error"
    },
    {
      "anonymous": false,
      "inputs": [
        {
          "indexed": true,
          "internalType": "address",
          "name": "owner",
          "type": "address"
        },
        {
          "indexed": true,
          "internalType": "address",
          "name": "approved",
          "type": "address"
        },
        {
          "indexed": true,
          "internalType": "uint256",
          "name": "tokenId",
          "type": "uint256"
        }
      ],
      "name": "Approval",
      "type": "event"
    },
    {
      "anonymous": false,
      "inputs": [
        {
          "indexed": true,
          "internalType": "address",
          "name": "owner",
          "type": "address"
        },
        {
          "indexed": true,
          "internalType": "address",
          "name": "operator",
          "type": "address"
        },
        {
          "indexed": false,
          "internalType": "bool",
          "name": "approved",
          "type": "bool"
        }
      ],
      "name": "ApprovalForAll",
      "type": "event"
    },
    {
      "anonymous": false,
      "inputs": [
        {
          "indexed": false,
          "internalType": "uint256",
          "name": "tokenId",
          "type": "uint256"
        },
        {
          "indexed": false,
          "internalType": "uint256",
          "name": "price",
          "type": "uint256"
        },
        {
          "indexed": false,
          "internalType": "address payable",
          "name": "seller",
          "type": "address"
        },
        {
          "indexed": false,
          "internalType": "address payable",
          "name": "buyer",
          "type": "address"
        },
        {
          "indexed": false,
          "internalType": "uint256",
          "name": "date",
          "type": "uint256"
        }
      ],
      "name": "RealtyBought",
      "type": "event"
    },
    {
      "anonymous": false,
      "inputs": [
        {
          "indexed": false,
          "internalType": "uint256",
          "name": "tokenId",
          "type": "uint256"
        },
        {
          "indexed": false,
          "internalType": "string",
          "name": "location",
          "type": "string"
        },
        {
          "indexed": false,
          "internalType": "string",
          "name": "description",
          "type": "string"
        },
        {
          "indexed": false,
          "internalType": "uint256",
          "name": "price",
          "type": "uint256"
        },
        {
          "indexed": false,
          "internalType": "address",
          "name": "owner",
          "type": "address"
        },
        {
          "indexed": false,
          "internalType": "bool",
          "name": "isForSale",
          "type": "bool"
        },
        {
          "indexed": false,
          "internalType": "string",
          "name": "image",
          "type": "string"
        }
      ],
      "name": "RealtyListed",
      "type": "event"
    },
    {
      "anonymous": false,
      "inputs": [
        {
          "indexed": false,
          "internalType": "uint256",
          "name": "tokenId",
          "type": "uint256"
        },
        {
          "indexed": false,
          "internalType": "uint256",
          "name": "price",
          "type": "uint256"
        },
        {
          "indexed": false,
          "internalType": "bool",
          "name": "isForSale",
          "type": "bool"
        }
      ],
      "name": "RealtyResell",
      "type": "event"
    },
    {
      "anonymous": false,
      "inputs": [
        {
          "indexed": true,
          "internalType": "address",
          "name": "from",
          "type": "address"
        },
        {
          "indexed": true,
          "internalType": "address",
          "name": "to",
          "type": "address"
        },
        {
          "indexed": true,
          "internalType": "uint256",
          "name": "tokenId",
          "type": "uint256"
        }
      ],
      "name": "Transfer",
      "type": "event"
    },
    {
      "inputs": [
        {
          "internalType": "address",
          "name": "to",
          "type": "address"
        },
        {
          "internalType": "uint256",
          "name": "tokenId",
          "type": "uint256"
        }
      ],
      "name": "approve",
      "outputs": [],
      "stateMutability": "nonpayable",
      "type": "function"
    },
    {
      "inputs": [
        {
          "internalType": "address",
          "name": "owner",
          "type": "address"
        }
      ],
      "name": "balanceOf",
      "outputs": [
        {
          "internalType": "uint256",
          "name": "",
          "type": "uint256"
        }
      ],
      "stateMutability": "view",
      "type": "function"
    },
    {
      "inputs": [
        {
          "internalType": "uint256",
          "name": "tokenId",
          "type": "uint256"
        }
      ],
      "name": "buyRealty",
      "outputs": [],
      "stateMutability": "payable",
      "type": "function"
    },
    {
      "inputs": [
        {
          "internalType": "string",
          "name": "_location",
          "type": "string"
        },
        {
          "internalType": "string",
          "name": "_description",
          "type": "string"
        },
        {
          "internalType": "uint256",
          "name": "_price",
          "type": "uint256"
        },
        {
          "internalType": "string",
          "name": "_image",
          "type": "string"
        }
      ],
      "name": "createListing",
      "outputs": [],
      "stateMutability": "nonpayable",
      "type": "function"
    },
    {
      "inputs": [
        {
          "internalType": "uint256",
          "name": "_tokenId",
          "type": "uint256"
        }
      ],
      "name": "findListing",
      "outputs": [
        {
          "internalType": "uint256",
          "name": "_price",
          "type": "uint256"
        },
        {
          "internalType": "address",
          "name": "_owner",
          "type": "address"
        },
        {
          "internalType": "bool",
          "name": "_isForSale",
          "type": "bool"
        }
      ],
      "stateMutability": "view",
      "type": "function"
    },
    {
      "inputs": [
        {
          "internalType": "uint256",
          "name": "tokenId",
          "type": "uint256"
        }
      ],
      "name": "getApproved",
      "outputs": [
        {
          "internalType": "address",
          "name": "",
          "type": "address"
        }
      ],
      "stateMutability": "view",
      "type": "function"
    },
    {
      "inputs": [],
      "name": "getMyRealties",
      "outputs": [
        {
          "internalType": "uint256[]",
          "name": "",
          "type": "uint256[]"
        }
      ],
      "stateMutability": "view",
      "type": "function"
    },
    {
      "inputs": [
        {
          "internalType": "uint256",
          "name": "_tokenId",
          "type": "uint256"
        }
      ],
      "name": "getRealtyTxns",
      "outputs": [
        {
          "components": [
            {
              "internalType": "uint256",
              "name": "tokenId",
              "type": "uint256"
            },
            {
              "internalType": "uint256",
              "name": "price",
              "type": "uint256"
            },
            {
              "internalType": "address payable",
              "name": "seller",
              "type": "address"
            },
            {
              "internalType": "address payable",
              "name": "buyer",
              "type": "address"
            },
            {
              "internalType": "uint256",
              "name": "date",
              "type": "uint256"
            }
          ],
          "internalType": "struct EstateLuxeOZepp.RealtyTxn[]",
          "name": "",
          "type": "tuple[]"
        }
      ],
      "stateMutability": "view",
      "type": "function"
    },
    {
      "inputs": [
        {
          "internalType": "address",
          "name": "owner",
          "type": "address"
        },
        {
          "internalType": "address",
          "name": "operator",
          "type": "address"
        }
      ],
      "name": "isApprovedForAll",
      "outputs": [
        {
          "internalType": "bool",
          "name": "",
          "type": "bool"
        }
      ],
      "stateMutability": "view",
      "type": "function"
    },
    {
      "inputs": [],
      "name": "name",
      "outputs": [
        {
          "internalType": "string",
          "name": "",
          "type": "string"
        }
      ],
      "stateMutability": "view",
      "type": "function"
    },
    {
      "inputs": [
        {
          "internalType": "uint256",
          "name": "tokenId",
          "type": "uint256"
        }
      ],
      "name": "ownerOf",
      "outputs": [
        {
          "internalType": "address",
          "name": "",
          "type": "address"
        }
      ],
      "stateMutability": "view",
      "type": "function"
    },
    {
      "inputs": [
        {
          "internalType": "uint256",
          "name": "",
          "type": "uint256"
        }
      ],
      "name": "realties",
      "outputs": [
        {
          "internalType": "uint256",
          "name": "tokenId",
          "type": "uint256"
        },
        {
          "internalType": "string",
          "name": "location",
          "type": "string"
        },
        {
          "internalType": "string",
          "name": "description",
          "type": "string"
        },
        {
          "internalType": "uint256",
          "name": "price",
          "type": "uint256"
        },
        {
          "internalType": "address payable",
          "name": "owner",
          "type": "address"
        },
        {
          "internalType": "bool",
          "name": "isForSale",
          "type": "bool"
        },
        {
          "internalType": "string",
          "name": "image",
          "type": "string"
        }
      ],
      "stateMutability": "view",
      "type": "function"
    },
    {
      "inputs": [
        {
          "internalType": "uint256",
          "name": "_tokenId",
          "type": "uint256"
        },
        {
          "internalType": "uint256",
          "name": "_price",
          "type": "uint256"
        }
      ],
      "name": "resellRealty",
      "outputs": [],
      "stateMutability": "payable",
      "type": "function"
    },
    {
      "inputs": [
        {
          "internalType": "address",
          "name": "from",
          "type": "address"
        },
        {
          "internalType": "address",
          "name": "to",
          "type": "address"
        },
        {
          "internalType": "uint256",
          "name": "tokenId",
          "type": "uint256"
        }
      ],
      "name": "safeTransferFrom",
      "outputs": [],
      "stateMutability": "nonpayable",
      "type": "function"
    },
    {
      "inputs": [
        {
          "internalType": "address",
          "name": "from",
          "type": "address"
        },
        {
          "internalType": "address",
          "name": "to",
          "type": "address"
        },
        {
          "internalType": "uint256",
          "name": "tokenId",
          "type": "uint256"
        },
        {
          "internalType": "bytes",
          "name": "data",
          "type": "bytes"
        }
      ],
      "name": "safeTransferFrom",
      "outputs": [],
      "stateMutability": "nonpayable",
      "type": "function"
    },
    {
      "inputs": [
        {
          "internalType": "address",
          "name": "operator",
          "type": "address"
        },
        {
          "internalType": "bool",
          "name": "approved",
          "type": "bool"
        }
      ],
      "name": "setApprovalForAll",
      "outputs": [],
      "stateMutability": "nonpayable",
      "type": "function"
    },
    {
      "inputs": [
        {
          "internalType": "bytes4",
          "name": "interfaceId",
          "type": "bytes4"
        }
      ],
      "name": "supportsInterface",
      "outputs": [
        {
          "internalType": "bool",
          "name": "",
          "type": "bool"
        }
      ],
      "stateMutability": "view",
      "type": "function"
    },
    {
      "inputs": [],
      "name": "symbol",
      "outputs": [
        {
          "internalType": "string",
          "name": "",
          "type": "string"
        }
      ],
      "stateMutability": "view",
      "type": "function"
    },
    {
      "inputs": [
        {
          "internalType": "uint256",
          "name": "tokenId",
          "type": "uint256"
        }
      ],
      "name": "tokenURI",
      "outputs": [
        {
          "internalType": "string",
          "name": "",
          "type": "string"
        }
      ],
      "stateMutability": "view",
      "type": "function"
    },
    {
      "inputs": [
        {
          "internalType": "address",
          "name": "from",
          "type": "address"
        },
        {
          "internalType": "address",
          "name": "to",
          "type": "address"
        },
        {
          "internalType": "uint256",
          "name": "tokenId",
          "type": "uint256"
        }
      ],
      "name": "transferFrom",
      "outputs": [],
      "stateMutability": "nonpayable",
      "type": "function"
    },
    {
      "stateMutability": "payable",
      "type": "receive"
    }
  ],
  "bytecode": "0x608060405234801561001057600080fd5b506040518060400160405280600f81526020017f4573746174654c7578654f5a65707000000000000000000000000000000000008152506040518060400160405280600381526020017f454c580000000000000000000000000000000000000000000000000000000000815250816000908161008c91906102f4565b50806001908161009c91906102f4565b5050506103c6565b600081519050919050565b7f4e487b7100000000000000000000000000000000000000000000000000000000600052604160045260246000fd5b7f4e487b7100000000000000000000000000000000000000000000000000000000600052602260045260246000fd5b6000600282049050600182168061012557607f821691505b602082108103610138576101376100de565b5b50919050565b60008190508160005260206000209050919050565b60006020601f8301049050919050565b600082821b905092915050565b6000600883026101a07fffffffffffffffffffffffffffffffffffffffffffffffffffffffffffffffff82610163565b6101aa8683610163565b95508019841693508086168417925050509392505050565b6000819050919050565b6000819050919050565b60006101f16101ec6101e7846101c2565b6101cc565b6101c2565b9050919050565b6000819050919050565b61020b836101d6565b61021f610217826101f8565b848454610170565b825550505050565b600090565b610234610227565b61023f818484610202565b505050565b5b818110156102635761025860008261022c565b600181019050610245565b5050565b601f8211156102a8576102798161013e565b61028284610153565b81016020851015610291578190505b6102a561029d85610153565b830182610244565b50505b505050565b600082821c905092915050565b60006102cb600019846008026102ad565b1980831691505092915050565b60006102e483836102ba565b9150826002028217905092915050565b6102fd826100a4565b67ffffffffffffffff811115610316576103156100af565b5b610320825461010d565b61032b828285610267565b600060209050601f83116001811461035e576000841561034c578287015190505b61035685826102d8565b8655506103be565b601f19841661036c8661013e565b60005b828110156103945784890151825560018201915060208501945060208101905061036f565b868310156103b157848901516103ad601f8916826102ba565b8355505b6001600288020188555050505b505050505050565b614503806103d56000396000f3fe6080604052600436106101235760003560e01c806370a08231116100a0578063b88d4fde11610064578063b88d4fde146103e8578063c87b56dd14610411578063e985e9c51461044e578063eaca6c531461048b578063eea74443146104ce5761012a565b806370a08231146102ef578063744409c61461032c57806395d89b41146103555780639aefcb0d14610380578063a22cb465146103bf5761012a565b806323b872dd116100e757806323b872dd146102195780632ca584e81461024257806342842e0e1461026d578063475c477d146102965780636352211e146102b25761012a565b806301ffc9a71461012f57806306fdde031461016c578063081812fc14610197578063095ea7b3146101d4578063174e4fd1146101fd5761012a565b3661012a57005b600080fd5b34801561013b57600080fd5b5061015660048036038101906101519190612ed8565b61050b565b6040516101639190612f20565b60405180910390f35b34801561017857600080fd5b506101816105ed565b60405161018e9190612fcb565b60405180910390f35b3480156101a357600080fd5b506101be60048036038101906101b99190613023565b61067f565b6040516101cb9190613091565b60405180910390f35b3480156101e057600080fd5b506101fb60048036038101906101f691906130d8565b61069b565b005b61021760048036038101906102129190613118565b6106b1565b005b34801561022557600080fd5b50610240600480360381019061023b9190613158565b610afb565b005b34801561024e57600080fd5b50610257610bfd565b6040516102649190613269565b60405180910390f35b34801561027957600080fd5b50610294600480360381019061028f9190613158565b610ddf565b005b6102b060048036038101906102ab9190613023565b610dff565b005b3480156102be57600080fd5b506102d960048036038101906102d49190613023565b611331565b6040516102e69190613091565b60405180910390f35b3480156102fb57600080fd5b506103166004803603810190610311919061328b565b611343565b60405161032391906132c7565b60405180910390f35b34801561033857600080fd5b50610353600480360381019061034e9190613417565b6113fd565b005b34801561036157600080fd5b5061036a6118b2565b6040516103779190612fcb565b60405180910390f35b34801561038c57600080fd5b506103a760048036038101906103a29190613023565b611944565b6040516103b6939291906134d2565b60405180910390f35b3480156103cb57600080fd5b506103e660048036038101906103e19190613535565b611bc2565b005b3480156103f457600080fd5b5061040f600480360381019061040a9190613616565b611bd8565b005b34801561041d57600080fd5b5061043860048036038101906104339190613023565b611bfd565b6040516104459190612fcb565b60405180910390f35b34801561045a57600080fd5b5061047560048036038101906104709190613699565b611c66565b6040516104829190612f20565b60405180910390f35b34801561049757600080fd5b506104b260048036038101906104ad9190613023565b611cfa565b6040516104c597969594939291906136fa565b60405180910390f35b3480156104da57600080fd5b506104f560048036038101906104f09190613023565b611f11565b60405161050291906138a4565b60405180910390f35b60007f80ac58cd000000000000000000000000000000000000000000000000000000007bffffffffffffffffffffffffffffffffffffffffffffffffffffffff1916827bffffffffffffffffffffffffffffffffffffffffffffffffffffffff191614806105d657507f5b5e139f000000000000000000000000000000000000000000000000000000007bffffffffffffffffffffffffffffffffffffffffffffffffffffffff1916827bffffffffffffffffffffffffffffffffffffffffffffffffffffffff1916145b806105e657506105e5826120ef565b5b9050919050565b6060600080546105fc906138f5565b80601f0160208091040260200160405190810160405280929190818152602001828054610628906138f5565b80156106755780601f1061064a57610100808354040283529160200191610675565b820191906000526020600020905b81548152906001019060200180831161065857829003601f168201915b5050505050905090565b600061068a82612159565b50610694826121e1565b9050919050565b6106ad82826106a861221e565b612226565b5050565b600073ffffffffffffffffffffffffffffffffffffffff166007600084815260200190815260200160002060009054906101000a900473ffffffffffffffffffffffffffffffffffffffff1673ffffffffffffffffffffffffffffffffffffffff1603610753576040517f08c379a000000000000000000000000000000000000000000000000000000000815260040161074a90613972565b60405180910390fd5b3373ffffffffffffffffffffffffffffffffffffffff166007600084815260200190815260200160002060009054906101000a900473ffffffffffffffffffffffffffffffffffffffff1673ffffffffffffffffffffffffffffffffffffffff16146107f4576040517f08c379a00000000000000000000000000000000000000000000000000000000081526004016107eb906139de565b60405180910390fd5b60008111610837576040517f08c379a000000000000000000000000000000000000000000000000000000000815260040161082e90613a4a565b60405180910390fd5b6000600c60008481526020019081526020016000206040518060e001604052908160008201548152602001600182018054610871906138f5565b80601f016020809104026020016040519081016040528092919081815260200182805461089d906138f5565b80156108ea5780601f106108bf576101008083540402835291602001916108ea565b820191906000526020600020905b8154815290600101906020018083116108cd57829003601f168201915b50505050508152602001600282018054610903906138f5565b80601f016020809104026020016040519081016040528092919081815260200182805461092f906138f5565b801561097c5780601f106109515761010080835404028352916020019161097c565b820191906000526020600020905b81548152906001019060200180831161095f57829003601f168201915b50505050508152602001600382015481526020016004820160009054906101000a900473ffffffffffffffffffffffffffffffffffffffff1673ffffffffffffffffffffffffffffffffffffffff1673ffffffffffffffffffffffffffffffffffffffff1681526020016004820160149054906101000a900460ff16151515158152602001600582018054610a10906138f5565b80601f0160208091040260200160405190810160405280929190818152602001828054610a3c906138f5565b8015610a895780601f10610a5e57610100808354040283529160200191610a89565b820191906000526020600020905b815481529060010190602001808311610a6c57829003601f168201915b50505050508152505090508181606001818152505060018160a00190151590811515815250507ffbc096da65d667d456e87182b24ab28c469855240d3fd53d9685b2a6954542c0816000015182606001518360a00151604051610aee93929190613a6a565b60405180910390a1505050565b600073ffffffffffffffffffffffffffffffffffffffff168273ffffffffffffffffffffffffffffffffffffffff1603610b6d5760006040517f64a0ae92000000000000000000000000000000000000000000000000000000008152600401610b649190613091565b60405180910390fd5b6000610b818383610b7c61221e565b612238565b90508373ffffffffffffffffffffffffffffffffffffffff168173ffffffffffffffffffffffffffffffffffffffff1614610bf7578382826040517f64283d7b000000000000000000000000000000000000000000000000000000008152600401610bee93929190613aa1565b60405180910390fd5b50505050565b60606000600860003373ffffffffffffffffffffffffffffffffffffffff1673ffffffffffffffffffffffffffffffffffffffff16815260200190815260200160002054905060008103610c9d57600067ffffffffffffffff811115610c6657610c656132ec565b5b604051908082528060200260200182016040528015610c945781602001602082028036833780820191505090505b50915050610ddc565b60008167ffffffffffffffff811115610cb957610cb86132ec565b5b604051908082528060200260200182016040528015610ce75781602001602082028036833780820191505090505b5090506000805b600680549050811015610dd4573373ffffffffffffffffffffffffffffffffffffffff1660068281548110610d2657610d25613ad8565b5b906000526020600020906006020160040160009054906101000a900473ffffffffffffffffffffffffffffffffffffffff1673ffffffffffffffffffffffffffffffffffffffff1603610dc75760068181548110610d8757610d86613ad8565b5b906000526020600020906006020160000154838381518110610dac57610dab613ad8565b5b6020026020010181815250508180610dc390613b36565b9250505b8080600101915050610cee565b508193505050505b90565b610dfa83838360405180602001604052806000815250611bd8565b505050565b600073ffffffffffffffffffffffffffffffffffffffff166007600083815260200190815260200160002060009054906101000a900473ffffffffffffffffffffffffffffffffffffffff1673ffffffffffffffffffffffffffffffffffffffff1603610ea1576040517f08c379a0000000000000000000000000000000000000000000000000000000008152600401610e9890613bca565b60405180910390fd5b6000806000610eaf84611944565b9250925092506000670de0b6b3a764000084610ecb9190613bea565b90508273ffffffffffffffffffffffffffffffffffffffff163373ffffffffffffffffffffffffffffffffffffffff1603610f3b576040517f08c379a0000000000000000000000000000000000000000000000000000000008152600401610f3290613c78565b60405180910390fd5b80341015610f7e576040517f08c379a0000000000000000000000000000000000000000000000000000000008152600401610f7590613ce4565b60405180910390fd5b81610fbe576040517f08c379a0000000000000000000000000000000000000000000000000000000008152600401610fb590613d50565b60405180910390fd5b8034111561101f5760008134610fd49190613d70565b90503373ffffffffffffffffffffffffffffffffffffffff166108fc829081150290604051600060405180830381858888f1935050505015801561101c573d6000803e3d6000fd5b50505b6007600086815260200190815260200160002060009054906101000a900473ffffffffffffffffffffffffffffffffffffffff1673ffffffffffffffffffffffffffffffffffffffff166108fc829081150290604051600060405180830381858888f19350505050158015611098573d6000803e3d6000fd5b5060006007600087815260200190815260200160002060009054906101000a900473ffffffffffffffffffffffffffffffffffffffff16905061110f6007600088815260200190815260200160002060009054906101000a900473ffffffffffffffffffffffffffffffffffffffff163388610afb565b33600c600088815260200190815260200160002060040160006101000a81548173ffffffffffffffffffffffffffffffffffffffff021916908373ffffffffffffffffffffffffffffffffffffffff1602179055506000600c600088815260200190815260200160002060040160146101000a81548160ff02191690831515021790555060006040518060a001604052808881526020018781526020018373ffffffffffffffffffffffffffffffffffffffff1681526020013373ffffffffffffffffffffffffffffffffffffffff168152602001428152509050600d6000888152602001908152602001600020819080600181540180825580915050600190039060005260206000209060050201600090919091909150600082015181600001556020820151816001015560408201518160020160006101000a81548173ffffffffffffffffffffffffffffffffffffffff021916908373ffffffffffffffffffffffffffffffffffffffff16021790555060608201518160030160006101000a81548173ffffffffffffffffffffffffffffffffffffffff021916908373ffffffffffffffffffffffffffffffffffffffff1602179055506080820151816004015550507f574de17373d77e73e9ae0156fa7b29453037eb4a023085cd36a922a3c109295f81600001518260200151836040015184606001518560800151604051611320959493929190613da4565b60405180910390a150505050505050565b600061133c82612159565b9050919050565b60008073ffffffffffffffffffffffffffffffffffffffff168273ffffffffffffffffffffffffffffffffffffffff16036113b65760006040517f89c62b640000000000000000000000000000000000000000000000000000000081526004016113ad9190613091565b60405180910390fd5b600360008373ffffffffffffffffffffffffffffffffffffffff1673ffffffffffffffffffffffffffffffffffffffff168152602001908152602001600020549050919050565b6000845111611441576040517f08c379a000000000000000000000000000000000000000000000000000000000815260040161143890613e43565b60405180910390fd5b6000835111611485576040517f08c379a000000000000000000000000000000000000000000000000000000000815260040161147c90613eaf565b60405180910390fd5b600082116114c8576040517f08c379a00000000000000000000000000000000000000000000000000000000081526004016114bf90613f1b565b60405180910390fd5b600081511161150c576040517f08c379a000000000000000000000000000000000000000000000000000000000815260040161150390613f87565b60405180910390fd5b60006040518060e00160405280600e5481526020018681526020018581526020018481526020013373ffffffffffffffffffffffffffffffffffffffff16815260200160011515815260200183815250905080600c6000600e5481526020019081526020016000206000820151816000015560208201518160010190816115939190614153565b5060408201518160020190816115a99190614153565b506060820151816003015560808201518160040160006101000a81548173ffffffffffffffffffffffffffffffffffffffff021916908373ffffffffffffffffffffffffffffffffffffffff16021790555060a08201518160040160146101000a81548160ff02191690831515021790555060c08201518160050190816116309190614153565b50905050600681908060018154018082558091505060019003906000526020600020906006020160009091909190915060008201518160000155602082015181600101908161167f9190614153565b5060408201518160020190816116959190614153565b506060820151816003015560808201518160040160006101000a81548173ffffffffffffffffffffffffffffffffffffffff021916908373ffffffffffffffffffffffffffffffffffffffff16021790555060a08201518160040160146101000a81548160ff02191690831515021790555060c082015181600501908161171c9190614153565b50505061172b33600e54612452565b3360076000600e54815260200190815260200160002060006101000a81548173ffffffffffffffffffffffffffffffffffffffff021916908373ffffffffffffffffffffffffffffffffffffffff1602179055506001600860003373ffffffffffffffffffffffffffffffffffffffff1673ffffffffffffffffffffffffffffffffffffffff16815260200190815260200160002060008282546117cf9190614225565b92505081905550600e60008154809291906117e990613b36565b91905055507fc6031684618fe9e70fe454a982b61ce91abed316bc6ff57faa7a40b6f9103798816000015182602001518360400151846060015185608001518660a001518760c0015160405161184597969594939291906142ae565b60405180910390a1600e543373ffffffffffffffffffffffffffffffffffffffff16600073ffffffffffffffffffffffffffffffffffffffff167fddf252ad1be2c89b69c2b068fc378daa952ba7f163c4a11628f55a4df523b3ef60405160405180910390a45050505050565b6060600180546118c1906138f5565b80601f01602080910402602001604051908101604052809291908181526020018280546118ed906138f5565b801561193a5780601f1061190f5761010080835404028352916020019161193a565b820191906000526020600020905b81548152906001019060200180831161191d57829003601f168201915b5050505050905090565b600080600080600c60008681526020019081526020016000206040518060e001604052908160008201548152602001600182018054611982906138f5565b80601f01602080910402602001604051908101604052809291908181526020018280546119ae906138f5565b80156119fb5780601f106119d0576101008083540402835291602001916119fb565b820191906000526020600020905b8154815290600101906020018083116119de57829003601f168201915b50505050508152602001600282018054611a14906138f5565b80601f0160208091040260200160405190810160405280929190818152602001828054611a40906138f5565b8015611a8d5780601f10611a6257610100808354040283529160200191611a8d565b820191906000526020600020905b815481529060010190602001808311611a7057829003601f168201915b50505050508152602001600382015481526020016004820160009054906101000a900473ffffffffffffffffffffffffffffffffffffffff1673ffffffffffffffffffffffffffffffffffffffff1673ffffffffffffffffffffffffffffffffffffffff1681526020016004820160149054906101000a900460ff16151515158152602001600582018054611b21906138f5565b80601f0160208091040260200160405190810160405280929190818152602001828054611b4d906138f5565b8015611b9a5780601f10611b6f57610100808354040283529160200191611b9a565b820191906000526020600020905b815481529060010190602001808311611b7d57829003601f168201915b505050505081525050905080606001519350806080015192508060a001519150509193909250565b611bd4611bcd61221e565b8383612470565b5050565b611be3848484610afb565b611bf7611bee61221e565b858585856125df565b50505050565b6060611c0882612159565b506000611c13612790565b90506000815111611c335760405180602001604052806000815250611c5e565b80611c3d846127a7565b604051602001611c4e92919061436e565b6040516020818303038152906040525b915050919050565b6000600560008473ffffffffffffffffffffffffffffffffffffffff1673ffffffffffffffffffffffffffffffffffffffff16815260200190815260200160002060008373ffffffffffffffffffffffffffffffffffffffff1673ffffffffffffffffffffffffffffffffffffffff16815260200190815260200160002060009054906101000a900460ff16905092915050565b60068181548110611d0a57600080fd5b9060005260206000209060060201600091509050806000015490806001018054611d33906138f5565b80601f0160208091040260200160405190810160405280929190818152602001828054611d5f906138f5565b8015611dac5780601f10611d8157610100808354040283529160200191611dac565b820191906000526020600020905b815481529060010190602001808311611d8f57829003601f168201915b505050505090806002018054611dc1906138f5565b80601f0160208091040260200160405190810160405280929190818152602001828054611ded906138f5565b8015611e3a5780601f10611e0f57610100808354040283529160200191611e3a565b820191906000526020600020905b815481529060010190602001808311611e1d57829003601f168201915b5050505050908060030154908060040160009054906101000a900473ffffffffffffffffffffffffffffffffffffffff16908060040160149054906101000a900460ff1690806005018054611e8e906138f5565b80601f0160208091040260200160405190810160405280929190818152602001828054611eba906138f5565b8015611f075780601f10611edc57610100808354040283529160200191611f07565b820191906000526020600020905b815481529060010190602001808311611eea57829003601f168201915b5050505050905087565b6060600073ffffffffffffffffffffffffffffffffffffffff166007600084815260200190815260200160002060009054906101000a900473ffffffffffffffffffffffffffffffffffffffff1673ffffffffffffffffffffffffffffffffffffffff1603611fb5576040517f08c379a0000000000000000000000000000000000000000000000000000000008152600401611fac90613972565b60405180910390fd5b600d6000838152602001908152602001600020805480602002602001604051908101604052809291908181526020016000905b828210156120e457838290600052602060002090600502016040518060a001604052908160008201548152602001600182015481526020016002820160009054906101000a900473ffffffffffffffffffffffffffffffffffffffff1673ffffffffffffffffffffffffffffffffffffffff1673ffffffffffffffffffffffffffffffffffffffff1681526020016003820160009054906101000a900473ffffffffffffffffffffffffffffffffffffffff1673ffffffffffffffffffffffffffffffffffffffff1673ffffffffffffffffffffffffffffffffffffffff16815260200160048201548152505081526020019060010190611fe8565b505050509050919050565b60007f01ffc9a7000000000000000000000000000000000000000000000000000000007bffffffffffffffffffffffffffffffffffffffffffffffffffffffff1916827bffffffffffffffffffffffffffffffffffffffffffffffffffffffff1916149050919050565b60008061216583612875565b9050600073ffffffffffffffffffffffffffffffffffffffff168173ffffffffffffffffffffffffffffffffffffffff16036121d857826040517f7e2732890000000000000000000000000000000000000000000000000000000081526004016121cf91906132c7565b60405180910390fd5b80915050919050565b60006004600083815260200190815260200160002060009054906101000a900473ffffffffffffffffffffffffffffffffffffffff169050919050565b600033905090565b61223383838360016128b2565b505050565b60008061224484612875565b9050600073ffffffffffffffffffffffffffffffffffffffff168373ffffffffffffffffffffffffffffffffffffffff161461228657612285818486612a77565b5b600073ffffffffffffffffffffffffffffffffffffffff168173ffffffffffffffffffffffffffffffffffffffff1614612317576122c86000856000806128b2565b6001600360008373ffffffffffffffffffffffffffffffffffffffff1673ffffffffffffffffffffffffffffffffffffffff168152602001908152602001600020600082825403925050819055505b600073ffffffffffffffffffffffffffffffffffffffff168573ffffffffffffffffffffffffffffffffffffffff161461239a576001600360008773ffffffffffffffffffffffffffffffffffffffff1673ffffffffffffffffffffffffffffffffffffffff168152602001908152602001600020600082825401925050819055505b846002600086815260200190815260200160002060006101000a81548173ffffffffffffffffffffffffffffffffffffffff021916908373ffffffffffffffffffffffffffffffffffffffff160217905550838573ffffffffffffffffffffffffffffffffffffffff168273ffffffffffffffffffffffffffffffffffffffff167fddf252ad1be2c89b69c2b068fc378daa952ba7f163c4a11628f55a4df523b3ef60405160405180910390a4809150509392505050565b61246c828260405180602001604052806000815250612b3b565b5050565b600073ffffffffffffffffffffffffffffffffffffffff168273ffffffffffffffffffffffffffffffffffffffff16036124e157816040517f5b08ba180000000000000000000000000000000000000000000000000000000081526004016124d89190613091565b60405180910390fd5b80600560008573ffffffffffffffffffffffffffffffffffffffff1673ffffffffffffffffffffffffffffffffffffffff16815260200190815260200160002060008473ffffffffffffffffffffffffffffffffffffffff1673ffffffffffffffffffffffffffffffffffffffff16815260200190815260200160002060006101000a81548160ff0219169083151502179055508173ffffffffffffffffffffffffffffffffffffffff168373ffffffffffffffffffffffffffffffffffffffff167f17307eab39ab6107e8899845ad3d59bd9653f200f220920489ca2b5937696c31836040516125d29190612f20565b60405180910390a3505050565b60008373ffffffffffffffffffffffffffffffffffffffff163b1115612789578273ffffffffffffffffffffffffffffffffffffffff1663150b7a02868685856040518563ffffffff1660e01b815260040161263e94939291906143e7565b6020604051808303816000875af192505050801561267a57506040513d601f19601f820116820180604052508101906126779190614448565b60015b6126fe573d80600081146126aa576040519150601f19603f3d011682016040523d82523d6000602084013e6126af565b606091505b5060008151036126f657836040517f64a0ae920000000000000000000000000000000000000000000000000000000081526004016126ed9190613091565b60405180910390fd5b805181602001fd5b63150b7a0260e01b7bffffffffffffffffffffffffffffffffffffffffffffffffffffffff1916817bffffffffffffffffffffffffffffffffffffffffffffffffffffffff19161461278757836040517f64a0ae9200000000000000000000000000000000000000000000000000000000815260040161277e9190613091565b60405180910390fd5b505b5050505050565b606060405180602001604052806000815250905090565b6060600060016127b684612b5f565b01905060008167ffffffffffffffff8111156127d5576127d46132ec565b5b6040519080825280601f01601f1916602001820160405280156128075781602001600182028036833780820191505090505b509050600082602001820190505b60011561286a578080600190039150507f3031323334353637383961626364656600000000000000000000000000000000600a86061a8153600a858161285e5761285d614475565b5b04945060008503612815575b819350505050919050565b60006002600083815260200190815260200160002060009054906101000a900473ffffffffffffffffffffffffffffffffffffffff169050919050565b80806128eb5750600073ffffffffffffffffffffffffffffffffffffffff168273ffffffffffffffffffffffffffffffffffffffff1614155b15612a1f5760006128fb84612159565b9050600073ffffffffffffffffffffffffffffffffffffffff168373ffffffffffffffffffffffffffffffffffffffff161415801561296657508273ffffffffffffffffffffffffffffffffffffffff168173ffffffffffffffffffffffffffffffffffffffff1614155b801561297957506129778184611c66565b155b156129bb57826040517fa9fbf51f0000000000000000000000000000000000000000000000000000000081526004016129b29190613091565b60405180910390fd5b8115612a1d57838573ffffffffffffffffffffffffffffffffffffffff168273ffffffffffffffffffffffffffffffffffffffff167f8c5be1e5ebec7d5bd14f71427d1e84f3dd0314c0f7b2291e5b200ac8c7c3b92560405160405180910390a45b505b836004600085815260200190815260200160002060006101000a81548173ffffffffffffffffffffffffffffffffffffffff021916908373ffffffffffffffffffffffffffffffffffffffff16021790555050505050565b612a82838383612cb2565b612b3657600073ffffffffffffffffffffffffffffffffffffffff168373ffffffffffffffffffffffffffffffffffffffff1603612af757806040517f7e273289000000000000000000000000000000000000000000000000000000008152600401612aee91906132c7565b60405180910390fd5b81816040517f177e802f000000000000000000000000000000000000000000000000000000008152600401612b2d9291906144a4565b60405180910390fd5b505050565b612b458383612d73565b612b5a612b5061221e565b60008585856125df565b505050565b600080600090507a184f03e93ff9f4daa797ed6e38ed64bf6a1f0100000000000000008310612bbd577a184f03e93ff9f4daa797ed6e38ed64bf6a1f0100000000000000008381612bb357612bb2614475565b5b0492506040810190505b6d04ee2d6d415b85acef81000000008310612bfa576d04ee2d6d415b85acef81000000008381612bf057612bef614475565b5b0492506020810190505b662386f26fc100008310612c2957662386f26fc100008381612c1f57612c1e614475565b5b0492506010810190505b6305f5e1008310612c52576305f5e1008381612c4857612c47614475565b5b0492506008810190505b6127108310612c77576127108381612c6d57612c6c614475565b5b0492506004810190505b60648310612c9a5760648381612c9057612c8f614475565b5b0492506002810190505b600a8310612ca9576001810190505b80915050919050565b60008073ffffffffffffffffffffffffffffffffffffffff168373ffffffffffffffffffffffffffffffffffffffff1614158015612d6a57508273ffffffffffffffffffffffffffffffffffffffff168473ffffffffffffffffffffffffffffffffffffffff161480612d2b5750612d2a8484611c66565b5b80612d6957508273ffffffffffffffffffffffffffffffffffffffff16612d51836121e1565b73ffffffffffffffffffffffffffffffffffffffff16145b5b90509392505050565b600073ffffffffffffffffffffffffffffffffffffffff168273ffffffffffffffffffffffffffffffffffffffff1603612de55760006040517f64a0ae92000000000000000000000000000000000000000000000000000000008152600401612ddc9190613091565b60405180910390fd5b6000612df383836000612238565b9050600073ffffffffffffffffffffffffffffffffffffffff168173ffffffffffffffffffffffffffffffffffffffff1614612e675760006040517f73c6ac6e000000000000000000000000000000000000000000000000000000008152600401612e5e9190613091565b60405180910390fd5b505050565b6000604051905090565b600080fd5b600080fd5b60007fffffffff0000000000000000000000000000000000000000000000000000000082169050919050565b612eb581612e80565b8114612ec057600080fd5b50565b600081359050612ed281612eac565b92915050565b600060208284031215612eee57612eed612e76565b5b6000612efc84828501612ec3565b91505092915050565b60008115159050919050565b612f1a81612f05565b82525050565b6000602082019050612f356000830184612f11565b92915050565b600081519050919050565b600082825260208201905092915050565b60005b83811015612f75578082015181840152602081019050612f5a565b60008484015250505050565b6000601f19601f8301169050919050565b6000612f9d82612f3b565b612fa78185612f46565b9350612fb7818560208601612f57565b612fc081612f81565b840191505092915050565b60006020820190508181036000830152612fe58184612f92565b905092915050565b6000819050919050565b61300081612fed565b811461300b57600080fd5b50565b60008135905061301d81612ff7565b92915050565b60006020828403121561303957613038612e76565b5b60006130478482850161300e565b91505092915050565b600073ffffffffffffffffffffffffffffffffffffffff82169050919050565b600061307b82613050565b9050919050565b61308b81613070565b82525050565b60006020820190506130a66000830184613082565b92915050565b6130b581613070565b81146130c057600080fd5b50565b6000813590506130d2816130ac565b92915050565b600080604083850312156130ef576130ee612e76565b5b60006130fd858286016130c3565b925050602061310e8582860161300e565b9150509250929050565b6000806040838503121561312f5761312e612e76565b5b600061313d8582860161300e565b925050602061314e8582860161300e565b9150509250929050565b60008060006060848603121561317157613170612e76565b5b600061317f868287016130c3565b9350506020613190868287016130c3565b92505060406131a18682870161300e565b9150509250925092565b600081519050919050565b600082825260208201905092915050565b6000819050602082019050919050565b6131e081612fed565b82525050565b60006131f283836131d7565b60208301905092915050565b6000602082019050919050565b6000613216826131ab565b61322081856131b6565b935061322b836131c7565b8060005b8381101561325c57815161324388826131e6565b975061324e836131fe565b92505060018101905061322f565b5085935050505092915050565b60006020820190508181036000830152613283818461320b565b905092915050565b6000602082840312156132a1576132a0612e76565b5b60006132af848285016130c3565b91505092915050565b6132c181612fed565b82525050565b60006020820190506132dc60008301846132b8565b92915050565b600080fd5b600080fd5b7f4e487b7100000000000000000000000000000000000000000000000000000000600052604160045260246000fd5b61332482612f81565b810181811067ffffffffffffffff82111715613343576133426132ec565b5b80604052505050565b6000613356612e6c565b9050613362828261331b565b919050565b600067ffffffffffffffff821115613382576133816132ec565b5b61338b82612f81565b9050602081019050919050565b82818337600083830152505050565b60006133ba6133b584613367565b61334c565b9050828152602081018484840111156133d6576133d56132e7565b5b6133e1848285613398565b509392505050565b600082601f8301126133fe576133fd6132e2565b5b813561340e8482602086016133a7565b91505092915050565b6000806000806080858703121561343157613430612e76565b5b600085013567ffffffffffffffff81111561344f5761344e612e7b565b5b61345b878288016133e9565b945050602085013567ffffffffffffffff81111561347c5761347b612e7b565b5b613488878288016133e9565b93505060406134998782880161300e565b925050606085013567ffffffffffffffff8111156134ba576134b9612e7b565b5b6134c6878288016133e9565b91505092959194509250565b60006060820190506134e760008301866132b8565b6134f46020830185613082565b6135016040830184612f11565b949350505050565b61351281612f05565b811461351d57600080fd5b50565b60008135905061352f81613509565b92915050565b6000806040838503121561354c5761354b612e76565b5b600061355a858286016130c3565b925050602061356b85828601613520565b9150509250929050565b600067ffffffffffffffff8211156135905761358f6132ec565b5b61359982612f81565b9050602081019050919050565b60006135b96135b484613575565b61334c565b9050828152602081018484840111156135d5576135d46132e7565b5b6135e0848285613398565b509392505050565b600082601f8301126135fd576135fc6132e2565b5b813561360d8482602086016135a6565b91505092915050565b600080600080608085870312156136305761362f612e76565b5b600061363e878288016130c3565b945050602061364f878288016130c3565b93505060406136608782880161300e565b925050606085013567ffffffffffffffff81111561368157613680612e7b565b5b61368d878288016135e8565b91505092959194509250565b600080604083850312156136b0576136af612e76565b5b60006136be858286016130c3565b92505060206136cf858286016130c3565b9150509250929050565b60006136e482613050565b9050919050565b6136f4816136d9565b82525050565b600060e08201905061370f600083018a6132b8565b81810360208301526137218189612f92565b905081810360408301526137358188612f92565b905061374460608301876132b8565b61375160808301866136eb565b61375e60a0830185612f11565b81810360c08301526137708184612f92565b905098975050505050505050565b600081519050919050565b600082825260208201905092915050565b6000819050602082019050919050565b6137b3816136d9565b82525050565b60a0820160008201516137cf60008501826131d7565b5060208201516137e260208501826131d7565b5060408201516137f560408501826137aa565b50606082015161380860608501826137aa565b50608082015161381b60808501826131d7565b50505050565b600061382d83836137b9565b60a08301905092915050565b6000602082019050919050565b60006138518261377e565b61385b8185613789565b93506138668361379a565b8060005b8381101561389757815161387e8882613821565b975061388983613839565b92505060018101905061386a565b5085935050505092915050565b600060208201905081810360008301526138be8184613846565b905092915050565b7f4e487b7100000000000000000000000000000000000000000000000000000000600052602260045260246000fd5b6000600282049050600182168061390d57607f821691505b6020821081036139205761391f6138c6565b5b50919050565b7f4e465420646f6573206e6f742065786973740000000000000000000000000000600082015250565b600061395c601283612f46565b915061396782613926565b602082019050919050565b6000602082019050818103600083015261398b8161394f565b9050919050565b7f496e76616c696420746f6b656e206f776e657200000000000000000000000000600082015250565b60006139c8601383612f46565b91506139d382613992565b602082019050919050565b600060208201905081810360008301526139f7816139bb565b9050919050565b7f496e707574207265616c74792070726963650000000000000000000000000000600082015250565b6000613a34601283612f46565b9150613a3f826139fe565b602082019050919050565b60006020820190508181036000830152613a6381613a27565b9050919050565b6000606082019050613a7f60008301866132b8565b613a8c60208301856132b8565b613a996040830184612f11565b949350505050565b6000606082019050613ab66000830186613082565b613ac360208301856132b8565b613ad06040830184613082565b949350505050565b7f4e487b7100000000000000000000000000000000000000000000000000000000600052603260045260246000fd5b7f4e487b7100000000000000000000000000000000000000000000000000000000600052601160045260246000fd5b6000613b4182612fed565b91507fffffffffffffffffffffffffffffffffffffffffffffffffffffffffffffffff8203613b7357613b72613b07565b5b600182019050919050565b7f546f6b656e20646f6573206e6f74206578697374000000000000000000000000600082015250565b6000613bb4601483612f46565b9150613bbf82613b7e565b602082019050919050565b60006020820190508181036000830152613be381613ba7565b9050919050565b6000613bf582612fed565b9150613c0083612fed565b9250828202613c0e81612fed565b91508282048414831517613c2557613c24613b07565b5b5092915050565b7f596f752063616e6e6f742062757920796f7572206f776e2070726f7065727479600082015250565b6000613c62602083612f46565b9150613c6d82613c2c565b602082019050919050565b60006020820190508181036000830152613c9181613c55565b9050919050565b7f496e73756666696369656e74204554482070726f766964656400000000000000600082015250565b6000613cce601983612f46565b9150613cd982613c98565b602082019050919050565b60006020820190508181036000830152613cfd81613cc1565b9050919050565b7f546f6b656e206973206e6f7420757020666f722073616c650000000000000000600082015250565b6000613d3a601883612f46565b9150613d4582613d04565b602082019050919050565b60006020820190508181036000830152613d6981613d2d565b9050919050565b6000613d7b82612fed565b9150613d8683612fed565b9250828203905081811115613d9e57613d9d613b07565b5b92915050565b600060a082019050613db960008301886132b8565b613dc660208301876132b8565b613dd360408301866136eb565b613de060608301856136eb565b613ded60808301846132b8565b9695505050505050565b7f4c6f636174696f6e206d757374206e6f7420626520656d707479000000000000600082015250565b6000613e2d601a83612f46565b9150613e3882613df7565b602082019050919050565b60006020820190508181036000830152613e5c81613e20565b9050919050565b7f4465736372697074696f6e206d757374206e6f7420626520656d707479000000600082015250565b6000613e99601d83612f46565b9150613ea482613e63565b602082019050919050565b60006020820190508181036000830152613ec881613e8c565b9050919050565b7f5072696365206d757374206e6f7420626520656d707479000000000000000000600082015250565b6000613f05601783612f46565b9150613f1082613ecf565b602082019050919050565b60006020820190508181036000830152613f3481613ef8565b9050919050565b7f496d616765206d757374206e6f7420626520656d707479000000000000000000600082015250565b6000613f71601783612f46565b9150613f7c82613f3b565b602082019050919050565b60006020820190508181036000830152613fa081613f64565b9050919050565b60008190508160005260206000209050919050565b60006020601f8301049050919050565b600082821b905092915050565b6000600883026140097fffffffffffffffffffffffffffffffffffffffffffffffffffffffffffffffff82613fcc565b6140138683613fcc565b95508019841693508086168417925050509392505050565b6000819050919050565b600061405061404b61404684612fed565b61402b565b612fed565b9050919050565b6000819050919050565b61406a83614035565b61407e61407682614057565b848454613fd9565b825550505050565b600090565b614093614086565b61409e818484614061565b505050565b5b818110156140c2576140b760008261408b565b6001810190506140a4565b5050565b601f821115614107576140d881613fa7565b6140e184613fbc565b810160208510156140f0578190505b6141046140fc85613fbc565b8301826140a3565b50505b505050565b600082821c905092915050565b600061412a6000198460080261410c565b1980831691505092915050565b60006141438383614119565b9150826002028217905092915050565b61415c82612f3b565b67ffffffffffffffff811115614175576141746132ec565b5b61417f82546138f5565b61418a8282856140c6565b600060209050601f8311600181146141bd57600084156141ab578287015190505b6141b58582614137565b86555061421d565b601f1984166141cb86613fa7565b60005b828110156141f3578489015182556001820191506020850194506020810190506141ce565b86831015614210578489015161420c601f891682614119565b8355505b6001600288020188555050505b505050505050565b600061423082612fed565b915061423b83612fed565b925082820190508082111561425357614252613b07565b5b92915050565b600061427461426f61426a84613050565b61402b565b613050565b9050919050565b600061428682614259565b9050919050565b60006142988261427b565b9050919050565b6142a88161428d565b82525050565b600060e0820190506142c3600083018a6132b8565b81810360208301526142d58189612f92565b905081810360408301526142e98188612f92565b90506142f860608301876132b8565b614305608083018661429f565b61431260a0830185612f11565b81810360c08301526143248184612f92565b905098975050505050505050565b600081905092915050565b600061434882612f3b565b6143528185614332565b9350614362818560208601612f57565b80840191505092915050565b600061437a828561433d565b9150614386828461433d565b91508190509392505050565b600081519050919050565b600082825260208201905092915050565b60006143b982614392565b6143c3818561439d565b93506143d3818560208601612f57565b6143dc81612f81565b840191505092915050565b60006080820190506143fc6000830187613082565b6144096020830186613082565b61441660408301856132b8565b818103606083015261442881846143ae565b905095945050505050565b60008151905061444281612eac565b92915050565b60006020828403121561445e5761445d612e76565b5b600061446c84828501614433565b91505092915050565b7f4e487b7100000000000000000000000000000000000000000000000000000000600052601260045260246000fd5b60006040820190506144b96000830185613082565b6144c660208301846132b8565b939250505056fea2646970667358221220ca38f857c811e43fda59da4acbb6436c0f5e7146d025dea037067858099db7bd64736f6c634300081c0033",
  "linkReferences": {},
  "deployedLinkReferences": {}
}